:020000000328D3
:100006008316031386010130831286000330FB003A
:100016008A30FC005530FD00FD0B0F28FC0B0F2825
:10002600FB0B0F2800000000023086000330FB00A7
:100036008A30FC005530FD00FD0B1F28FC0B1F28E5
:10004600FB0B1F2800000000043086000330FB0075
:100056008A30FC005530FD00FD0B2F28FC0B2F28A5
:10006600FB0B2F2800000000083086000330FB0041
:100076008A30FC005530FD00FD0B3F28FC0B3F2865
:10008600FB0B3F2800000000103086000330FB0009
:100096008A30FC005530FD00FD0B4F28FC0B4F2825
:1000A600FB0B4F2800000000203086000330FB00C9
:1000B6008A30FC005530FD00FD0B5F28FC0B5F28E5
:1000C600FB0B5F2800000000403086000330FB0079
:1000D6008A30FC005530FD00FD0B6F28FC0B6F28A5
:1000E600FB0B6F2800000000803086000330FB0009
:1000F6008A30FC005530FD00FD0B7F28FC0B7F2865
:10010600FB0B7F2800000000403086000330FB0018
:100116008A30FC005530FD00FD0B8F28FC0B8F2824
:10012600FB0B8F2800000000203086000330FB0008
:100136008A30FC005530FD00FD0B9F28FC0B9F28E4
:10014600FB0B9F2800000000103086000330FB00E8
:100156008A30FC005530FD00FD0BAF28FC0BAF28A4
:10016600FB0BAF2800000000083086000330FB00C0
:100176008A30FC005530FD00FD0BBF28FC0BBF2864
:10018600FB0BBF2800000000043086000330FB0094
:100196008A30FC005530FD00FD0BCF28FC0BCF2824
:1001A600FB0BCF2800000000023086000330FB0066
:1001B6008A30FC005530FD00FD0BDF28FC0BDF28E4
:1001C600FB0BDF2800000000013086000330FB0037
:1001D6008A30FC005530FD00FD0BEF28FC0BEF28A4
:0C01E600FB0BEF28000000000628F828A2
:02400E004A2F37
:00000001FF
