:020000000328D3
:100006008316031386013F30831286001A30FB00E5
:100016005E30FC006E30FD00FD0B0F28FC0B0F2838
:10002600FB0B0F280000063086001A30FB005E30FE
:10003600FC006E30FD00FD0B1E28FC0B1E28FB0B82
:100046001E2800005B3086001A30FB005E30FC0084
:100056006E30FD00FD0B2D28FC0B2D28FB0B2D28EB
:1000660000004F3086001A30FB005E30FC006E3018
:10007600FD00FD0B3C28FC0B3C28FB0B3C2800003C
:10008600663086001A30FB005E30FC006E30FD00E4
:10009600FD0B4B28FC0B4B28FB0B4B2800006D304F
:1000A60086001A30FB005E30FC006E30FD00FD0B52
:1000B6005A28FC0B5A28FB0B5A2800007D30860074
:1000C6001A30FB005E30FC006E30FD00FD0B692827
:1000D600FC0B6928FB0B69280000073086001A30E4
:1000E600FB005E30FC006E30FD00FD0B7828FC0B3B
:1000F6007828FB0B782800007F3086001A30FB003A
:100106005E30FC006E30FD00FD0B8728FC0B872857
:10011600FB0B872800006F3086001A30FB005E302C
:10012600FC006E30FD00FD0B9628FC0B9628FB0BA1
:1001360096280000773086001A30FB005E30FC00FF
:100146006E30FD00FD0BA528FC0BA528FB0BA52892
:1001560000007C3086001A30FB005E30FC006E30FA
:10016600FD00FD0BB428FC0BB428FB0BB4280000E3
:10017600393086001A30FB005E30FC006E30FD0020
:10018600FD0BC328FC0BC328FB0BC32800005E3005
:1001960086001A30FB005E30FC006E30FD00FD0B61
:1001A600D228FC0BD228FB0BD2280000793086001F
:1001B6001A30FB005E30FC006E30FD00FD0BE128BE
:1001C600FC0BE128FB0BE1280000713086001A3099
:1001D600FB005E30FC006E30FD00FD0BF028FC0BD2
:1001E600F028FB0BF0280000713086001A30FB0067
:1001F6005E30FC006E30FD00FD0BFF28FC0BFF2877
:10020600FB0BFF280000793086001A30FB005E30B9
:10021600FC006E30FD00FD0B0E29FC0B0E29FB0BBE
:100226000E2900005E3086001A30FB005E30FC00AE
:100236006E30FD00FD0B1D29FC0B1D29FB0B1D2936
:100246000000393086001A30FB005E30FC006E304C
:10025600FD00FD0B2C29FC0B2C29FB0B2C29000087
:100266007C3086001A30FB005E30FC006E30FD00EC
:10027600FD0B3B29FC0B3B29FB0B3B290000773090
:1002860086001A30FB005E30FC006E30FD00FD0B70
:100296004A29FC0B4A29FB0B4A2900006F308600CD
:1002A6001A30FB005E30FC006E30FD00FD0B592954
:1002B600FC0B5929FB0B592900007F3086001A30A8
:1002C600FB005E30FC006E30FD00FD0B6829FC0B68
:1002D6006829FB0B68290000073086001A30FB00EE
:1002E6005E30FC006E30FD00FD0B7729FC0B772994
:1002F600FB0B772900007D3086001A30FB005E304C
:10030600FC006E30FD00FD0B8629FC0B8629FB0BDD
:10031600862900006D3086001A30FB005E30FC0036
:100326006E30FD00FD0B9529FC0B9529FB0B9529DD
:100336000000663086001A30FB005E30FC006E302E
:10034600FD00FD0BA429FC0BA429FB0BA42900002E
:100356004F3086001A30FB005E30FC006E30FD0028
:10036600FD0BB329FC0BB329FB0BB32900005B3053
:1003760086001A30FB005E30FC006E30FD00FD0B7F
:10038600C229FC0BC229FB0BC229000006308600DD
:100396001A30FB005E30FC006E30FD00FD0BD129EB
:1003A600FC0BD129FB0BD12900003F3086001A3007
:1003B600FB005E30FC006E30FD00FD0BE029FC0BFF
:0C03C600E029FB0BE02900000628E829D4
:02400E004A2F37
:00000001FF
