:020000000328D3
:100006008316031386010130831286000330FB003A
:100016008A30FC005530FD00FD0B0F28FC0B0F2825
:10002600FB0B0F2800000000053086000330FB00A4
:100036008A30FC005530FD00FD0B1F28FC0B1F28E5
:10004600FB0B1F2800000000153086000330FB0064
:100056008A30FC005530FD00FD0B2F28FC0B2F28A5
:10006600FB0B2F2800000000553086000330FB00F4
:100076008A30FC005530FD00FD0B3F28FC0B3F2865
:10008600FB0B3F2800000000543086000330FB00C5
:100096008A30FC005530FD00FD0B4F28FC0B4F2825
:1000A600FB0B4F2800000000503086000330FB0099
:1000B6008A30FC005530FD00FD0B5F28FC0B5F28E5
:1000C600FB0B5F2800000000403086000330FB0079
:1000D6008A30FC005530FD00FD0B6F28FC0B6F28A5
:1000E600FB0B6F280000000086010330FB008A30FE
:1000F600FC005530FD00FD0B7E28FC0B7E28FB0B1B
:100106007E2800000000023086000330FB008A30A3
:10011600FC005530FD00FD0B8E28FC0B8E28FB0BDA
:100126008E2800000000063086000330FB008A306F
:10013600FC005530FD00FD0B9E28FC0B9E28FB0B9A
:100146009E2800000000163086000330FB008A302F
:10015600FC005530FD00FD0BAE28FC0BAE28FB0B5A
:10016600AE2800000000563086000330FB008A30BF
:10017600FC005530FD00FD0BBE28FC0BBE28FB0B1A
:10018600BE2800000000523086000330FB008A3093
:10019600FC005530FD00FD0BCE28FC0BCE28FB0BDA
:1001A600CE2800000000423086000330FB008A3073
:1001B600FC005530FD00FD0BDE28FC0BDE28FB0B9A
:1001C600DE2800000000023086000330FB008A3083
:1001D600FC005530FD00FD0BEE28FC0BEE28FB0B5A
:0A01E600EE28000000000628F728AC
:02400E004A2F37
:00000001FF
