:020000000328D3
:100006008316031386010130831286000D30FB0030
:10001600AF30FC00B630FD00FD0B0F28FC0B0F289F
:10002600FB0B0F280000053086000D30FB00AF30BB
:10003600FC00B630FD00FD0B1E28FC0B1E28FB0B3A
:100046001E280000153086000D30FB00AF30FC0086
:10005600B630FD00FD0B2D28FC0B2D28FB0B2D28A3
:100066000000553086000D30FB00AF30FC00B63086
:10007600FD00FD0B3C28FC0B3C28FB0B3C2800003C
:10008600543086000D30FB00AF30FC00B630FD006A
:10009600FD0B4B28FC0B4B28FB0B4B28000050306C
:1000A60086000D30FB00AF30FC00B630FD00FD0BC6
:1000B6005A28FC0B5A28FB0B5A28000040308600B1
:1000C6000D30FB00AF30FC00B630FD00FD0B69289B
:1000D600FC0B6928FB0B6928000086010D30FB002C
:1000E600AF30FC00B630FD00FD0B7728FC0B7728FF
:1000F600FB0B77280000023086000D30FB00AF3086
:10010600FC00B630FD00FD0B8628FC0B8628FB0B99
:10011600862800000A3086000D30FB00AF30FC0058
:10012600B630FD00FD0B9528FC0B9528FB0B95289A
:1001360000002A3086000D30FB00AF30FC00B630E0
:10014600FD00FD0BA428FC0BA428FB0BA428000033
:10015600AA3086000D30FB00AF30FC00B630FD0043
:10016600FD0BB328FC0BB328FB0BB3280000A8300B
:1001760086000D30FB00AF30FC00B630FD00FD0BF5
:10018600C228FC0BC228FB0BC2280000A030860048
:100196000D30FB00AF30FC00B630FD00FD0BD12862
:1001A600FC0BD128FB0BD1280000803086000D30D7
:1001B600FB00AF30FC00B630FD00FD0BE028FC0B69
:1001C600E028FB0BE028000086010D30FB00AF3075
:1001D600FC00B630FD00FD0BEE28FC0BEE28FB0BF9
:0801E600EE2800000628F628AF
:02400E004A2F37
:00000001FF
