:020000000328D3
:100006008316031386011830831286000330FB0023
:100016008A30FC005530FD00FD0B0F28FC0B0F2825
:10002600FB0B0F2800000000243086000330FB0085
:100036008A30FC005530FD00FD0B1F28FC0B1F28E5
:10004600FB0B1F2800000000423086000330FB0037
:100056008A30FC005530FD00FD0B2F28FC0B2F28A5
:10006600FB0B2F2800000000813086000330FB00C8
:100076008A30FC005530FD00FD0B3F28FC0B3F2865
:10008600FB0B3F2800000000423086000330FB00D7
:100096008A30FC005530FD00FD0B4F28FC0B4F2825
:1000A600FB0B4F2800000000243086000330FB00C5
:1000B6008A30FC005530FD00FD0B5F28FC0B5F28E5
:0C00C600FB0B5F280000000006286828E3
:02400E004A2F37
:00000001FF
